{
  "address": "0x5FbDB2315678afecb367f032d93F642f64180aa3",
  "abi": [
    {
      "anonymous": false,
      "inputs": [
        {
          "indexed": false,
          "internalType": "address",
          "name": "sender",
          "type": "address"
        },
        {
          "indexed": false,
          "internalType": "uint256",
          "name": "amount",
          "type": "uint256"
        },
        {
          "indexed": false,
          "internalType": "uint256",
          "name": "timestamp",
          "type": "uint256"
        }
      ],
      "name": "DepositMade",
      "type": "event"
    },
    {
      "anonymous": false,
      "inputs": [
        {
          "indexed": true,
          "internalType": "address",
          "name": "previousOwner",
          "type": "address"
        },
        {
          "indexed": true,
          "internalType": "address",
          "name": "newOwner",
          "type": "address"
        }
      ],
      "name": "OwnershipTransferred",
      "type": "event"
    },
    {
      "inputs": [],
      "name": "addReward",
      "outputs": [],
      "stateMutability": "payable",
      "type": "function"
    },
    {
      "inputs": [],
      "name": "calculatePecentage",
      "outputs": [
        {
          "internalType": "uint256",
          "name": "",
          "type": "uint256"
        }
      ],
      "stateMutability": "view",
      "type": "function"
    },
    {
      "inputs": [],
      "name": "checkAmountInPool",
      "outputs": [
        {
          "internalType": "uint256",
          "name": "",
          "type": "uint256"
        }
      ],
      "stateMutability": "view",
      "type": "function"
    },
    {
      "inputs": [],
      "name": "checkIfUserExist",
      "outputs": [
        {
          "internalType": "bool",
          "name": "",
          "type": "bool"
        }
      ],
      "stateMutability": "view",
      "type": "function"
    },
    {
      "inputs": [],
      "name": "deposit",
      "outputs": [],
      "stateMutability": "payable",
      "type": "function"
    },
    {
      "inputs": [
        {
          "internalType": "address",
          "name": "",
          "type": "address"
        }
      ],
      "name": "depositDate",
      "outputs": [
        {
          "internalType": "uint256",
          "name": "",
          "type": "uint256"
        }
      ],
      "stateMutability": "view",
      "type": "function"
    },
    {
      "inputs": [
        {
          "internalType": "uint256",
          "name": "_timeStamp",
          "type": "uint256"
        }
      ],
      "name": "getReward",
      "outputs": [
        {
          "internalType": "uint256",
          "name": "_amount",
          "type": "uint256"
        }
      ],
      "stateMutability": "view",
      "type": "function"
    },
    {
      "inputs": [],
      "name": "owner",
      "outputs": [
        {
          "internalType": "address",
          "name": "",
          "type": "address"
        }
      ],
      "stateMutability": "view",
      "type": "function"
    },
    {
      "inputs": [],
      "name": "renounceOwnership",
      "outputs": [],
      "stateMutability": "nonpayable",
      "type": "function"
    },
    {
      "inputs": [
        {
          "internalType": "uint256",
          "name": "",
          "type": "uint256"
        }
      ],
      "name": "rewards",
      "outputs": [
        {
          "internalType": "uint256",
          "name": "timestamp",
          "type": "uint256"
        },
        {
          "internalType": "uint256",
          "name": "totalAmount",
          "type": "uint256"
        }
      ],
      "stateMutability": "view",
      "type": "function"
    },
    {
      "inputs": [
        {
          "internalType": "address",
          "name": "",
          "type": "address"
        }
      ],
      "name": "stakedAmount",
      "outputs": [
        {
          "internalType": "uint256",
          "name": "",
          "type": "uint256"
        }
      ],
      "stateMutability": "view",
      "type": "function"
    },
    {
      "inputs": [
        {
          "internalType": "uint256",
          "name": "",
          "type": "uint256"
        }
      ],
      "name": "stakers",
      "outputs": [
        {
          "internalType": "address",
          "name": "",
          "type": "address"
        }
      ],
      "stateMutability": "view",
      "type": "function"
    },
    {
      "inputs": [
        {
          "internalType": "address",
          "name": "newOwner",
          "type": "address"
        }
      ],
      "name": "transferOwnership",
      "outputs": [],
      "stateMutability": "nonpayable",
      "type": "function"
    },
    {
      "inputs": [],
      "name": "withdraw",
      "outputs": [],
      "stateMutability": "payable",
      "type": "function"
    }
  ],
  "transactionHash": "0x1c08fd372a107decfdffd141b181970a985e7ddecd38bbffc1b24fcb280d35f0",
  "args": [],
  "numDeployments": 1,
  "solcInputHash": "65df2987aa29b956d93d15bc742d7519",
  "bytecode": "0x608060405262093a8060055534801561001757600080fd5b5061003461002961003960201b60201c565b61004160201b60201c565b610105565b600033905090565b60008060009054906101000a900473ffffffffffffffffffffffffffffffffffffffff169050816000806101000a81548173ffffffffffffffffffffffffffffffffffffffff021916908373ffffffffffffffffffffffffffffffffffffffff1602179055508173ffffffffffffffffffffffffffffffffffffffff168173ffffffffffffffffffffffffffffffffffffffff167f8be0079c531659141344cd1fd0a4f28419497f9722a3daafe3b4186f6b6457e060405160405180910390a35050565b6113bc806101146000396000f3fe6080604052600436106100dd5760003560e01c8063bdf2b5e41161007f578063f2fde38b11610059578063f2fde38b1461023d578063f301af4214610266578063f9931855146102a4578063fd5e6dd1146102e1576100dd565b8063bdf2b5e4146101fe578063d0e30db014610229578063e59a58ee14610233576100dd565b80633ccfd60b116100bb5780633ccfd60b146101875780635912676d14610191578063715018a6146101bc5780638da5cb5b146101d3576100dd565b80631c4b774b146100e257806324b92e8e1461011f5780633bdb7b741461015c575b600080fd5b3480156100ee57600080fd5b5061010960048036038101906101049190610dcf565b61031e565b6040516101169190610e0b565b60405180910390f35b34801561012b57600080fd5b5061014660048036038101906101419190610e84565b6103af565b6040516101539190610e0b565b60405180910390f35b34801561016857600080fd5b506101716103c7565b60405161017e9190610e0b565b60405180910390f35b61018f6103d4565b005b34801561019d57600080fd5b506101a66104fd565b6040516101b39190610ecc565b60405180910390f35b3480156101c857600080fd5b506101d16105aa565b005b3480156101df57600080fd5b506101e8610632565b6040516101f59190610ef6565b60405180910390f35b34801561020a57600080fd5b5061021361065b565b6040516102209190610e0b565b60405180910390f35b6102316106d1565b005b61023b61092b565b005b34801561024957600080fd5b50610264600480360381019061025f9190610e84565b610a83565b005b34801561027257600080fd5b5061028d60048036038101906102889190610dcf565b610b7b565b60405161029b929190610f11565b60405180910390f35b3480156102b057600080fd5b506102cb60048036038101906102c69190610e84565b610baf565b6040516102d89190610e0b565b60405180910390f35b3480156102ed57600080fd5b5061030860048036038101906103039190610dcf565b610bc7565b6040516103159190610ef6565b60405180910390f35b60008060005b6001805490508110156103a45760006001828154811061034757610346610f3a565b5b90600052602060002090600202016040518060400160405290816000820154815260200160018201548152505090508060000151851161039057806020015192505050506103aa565b50808061039c90610f98565b915050610324565b50809150505b919050565b60036020528060005260406000206000915090505481565b6000804790508091505090565b60006103de61065b565b90506000600360003373ffffffffffffffffffffffffffffffffffffffff1673ffffffffffffffffffffffffffffffffffffffff168152602001908152602001600020549050600061042f8261031e565b90506000818461043f9190611010565b905061044a81610c06565b60003373ffffffffffffffffffffffffffffffffffffffff168260405161047090611072565b60006040518083038185875af1925050503d80600081146104ad576040519150601f19603f3d011682016040523d82523d6000602084013e6104b2565b606091505b50509050806104f6576040517f08c379a00000000000000000000000000000000000000000000000000000000081526004016104ed906110e4565b60405180910390fd5b5050505050565b600080600090505b6004805490508110156105a1573373ffffffffffffffffffffffffffffffffffffffff166004828154811061053d5761053c610f3a565b5b9060005260206000200160009054906101000a900473ffffffffffffffffffffffffffffffffffffffff1673ffffffffffffffffffffffffffffffffffffffff16141561058e5760019150506105a7565b808061059990610f98565b915050610505565b50600090505b90565b6105b2610c9f565b73ffffffffffffffffffffffffffffffffffffffff166105d0610632565b73ffffffffffffffffffffffffffffffffffffffff1614610626576040517f08c379a000000000000000000000000000000000000000000000000000000000815260040161061d90611150565b60405180910390fd5b6106306000610ca7565b565b60008060009054906101000a900473ffffffffffffffffffffffffffffffffffffffff16905090565b6000806106666103c7565b90506000600260003373ffffffffffffffffffffffffffffffffffffffff1673ffffffffffffffffffffffffffffffffffffffff1681526020019081526020016000205490506000826064836106bc9190611170565b6106c691906111ca565b905080935050505090565b60003411610714576040517f08c379a000000000000000000000000000000000000000000000000000000000815260040161070b90611247565b60405180910390fd5b600061071e6104fd565b905080156108015734600260003373ffffffffffffffffffffffffffffffffffffffff1673ffffffffffffffffffffffffffffffffffffffff16815260200190815260200160002060008282546107759190611267565b9250508190555042600360003373ffffffffffffffffffffffffffffffffffffffff1673ffffffffffffffffffffffffffffffffffffffff168152602001908152602001600020819055507f0b05f0d1cd0819f155b8a61f60baf7767c1ee49d04aeaab701df236140eb93f93334426040516107f3939291906112bd565b60405180910390a150610929565b34600260003373ffffffffffffffffffffffffffffffffffffffff1673ffffffffffffffffffffffffffffffffffffffff1681526020019081526020016000208190555042600360003373ffffffffffffffffffffffffffffffffffffffff1673ffffffffffffffffffffffffffffffffffffffff168152602001908152602001600020819055506004339080600181540180825580915050600190039060005260206000200160009091909190916101000a81548173ffffffffffffffffffffffffffffffffffffffff021916908373ffffffffffffffffffffffffffffffffffffffff1602179055507f0b05f0d1cd0819f155b8a61f60baf7767c1ee49d04aeaab701df236140eb93f933344260405161091f939291906112bd565b60405180910390a1505b565b610933610c9f565b73ffffffffffffffffffffffffffffffffffffffff16610951610632565b73ffffffffffffffffffffffffffffffffffffffff16146109a7576040517f08c379a000000000000000000000000000000000000000000000000000000000815260040161099e90611150565b60405180910390fd5b600034116109ea576040517f08c379a00000000000000000000000000000000000000000000000000000000081526004016109e190611247565b60405180910390fd5b600060405180604001604052804281526020014781525090506001819080600181540180825580915050600190039060005260206000209060020201600090919091909150600082015181600001556020820151816001015550507f0b05f0d1cd0819f155b8a61f60baf7767c1ee49d04aeaab701df236140eb93f9333442604051610a78939291906112bd565b60405180910390a150565b610a8b610c9f565b73ffffffffffffffffffffffffffffffffffffffff16610aa9610632565b73ffffffffffffffffffffffffffffffffffffffff1614610aff576040517f08c379a0000000000000000000000000000000000000000000000000000000008152600401610af690611150565b60405180910390fd5b600073ffffffffffffffffffffffffffffffffffffffff168173ffffffffffffffffffffffffffffffffffffffff161415610b6f576040517f08c379a0000000000000000000000000000000000000000000000000000000008152600401610b6690611366565b60405180910390fd5b610b7881610ca7565b50565b60018181548110610b8b57600080fd5b90600052602060002090600202016000915090508060000154908060010154905082565b60026020528060005260406000206000915090505481565b60048181548110610bd757600080fd5b906000526020600020016000915054906101000a900473ffffffffffffffffffffffffffffffffffffffff1681565b610c9c81604051602401610c1a9190610e0b565b6040516020818303038152906040527ff5b1bba9000000000000000000000000000000000000000000000000000000007bffffffffffffffffffffffffffffffffffffffffffffffffffffffff19166020820180517bffffffffffffffffffffffffffffffffffffffffffffffffffffffff8381831617835250505050610d6b565b50565b600033905090565b60008060009054906101000a900473ffffffffffffffffffffffffffffffffffffffff169050816000806101000a81548173ffffffffffffffffffffffffffffffffffffffff021916908373ffffffffffffffffffffffffffffffffffffffff1602179055508173ffffffffffffffffffffffffffffffffffffffff168173ffffffffffffffffffffffffffffffffffffffff167f8be0079c531659141344cd1fd0a4f28419497f9722a3daafe3b4186f6b6457e060405160405180910390a35050565b60008151905060006a636f6e736f6c652e6c6f679050602083016000808483855afa5050505050565b600080fd5b6000819050919050565b610dac81610d99565b8114610db757600080fd5b50565b600081359050610dc981610da3565b92915050565b600060208284031215610de557610de4610d94565b5b6000610df384828501610dba565b91505092915050565b610e0581610d99565b82525050565b6000602082019050610e206000830184610dfc565b92915050565b600073ffffffffffffffffffffffffffffffffffffffff82169050919050565b6000610e5182610e26565b9050919050565b610e6181610e46565b8114610e6c57600080fd5b50565b600081359050610e7e81610e58565b92915050565b600060208284031215610e9a57610e99610d94565b5b6000610ea884828501610e6f565b91505092915050565b60008115159050919050565b610ec681610eb1565b82525050565b6000602082019050610ee16000830184610ebd565b92915050565b610ef081610e46565b82525050565b6000602082019050610f0b6000830184610ee7565b92915050565b6000604082019050610f266000830185610dfc565b610f336020830184610dfc565b9392505050565b7f4e487b7100000000000000000000000000000000000000000000000000000000600052603260045260246000fd5b7f4e487b7100000000000000000000000000000000000000000000000000000000600052601160045260246000fd5b6000610fa382610d99565b91507fffffffffffffffffffffffffffffffffffffffffffffffffffffffffffffffff821415610fd657610fd5610f69565b5b600182019050919050565b7f4e487b7100000000000000000000000000000000000000000000000000000000600052601260045260246000fd5b600061101b82610d99565b915061102683610d99565b92508261103657611035610fe1565b5b828206905092915050565b600081905092915050565b50565b600061105c600083611041565b91506110678261104c565b600082019050919050565b600061107d8261104f565b9150819050919050565b600082825260208201905092915050565b7f4661696c656420746f2073656e64204574686572000000000000000000000000600082015250565b60006110ce601483611087565b91506110d982611098565b602082019050919050565b600060208201905081810360008301526110fd816110c1565b9050919050565b7f4f776e61626c653a2063616c6c6572206973206e6f7420746865206f776e6572600082015250565b600061113a602083611087565b915061114582611104565b602082019050919050565b600060208201905081810360008301526111698161112d565b9050919050565b600061117b82610d99565b915061118683610d99565b9250817fffffffffffffffffffffffffffffffffffffffffffffffffffffffffffffffff04831182151516156111bf576111be610f69565b5b828202905092915050565b60006111d582610d99565b91506111e083610d99565b9250826111f0576111ef610fe1565b5b828204905092915050565b7f506c73206164642066756e647300000000000000000000000000000000000000600082015250565b6000611231600d83611087565b915061123c826111fb565b602082019050919050565b6000602082019050818103600083015261126081611224565b9050919050565b600061127282610d99565b915061127d83610d99565b9250827fffffffffffffffffffffffffffffffffffffffffffffffffffffffffffffffff038211156112b2576112b1610f69565b5b828201905092915050565b60006060820190506112d26000830186610ee7565b6112df6020830185610dfc565b6112ec6040830184610dfc565b949350505050565b7f4f776e61626c653a206e6577206f776e657220697320746865207a65726f206160008201527f6464726573730000000000000000000000000000000000000000000000000000602082015250565b6000611350602683611087565b915061135b826112f4565b604082019050919050565b6000602082019050818103600083015261137f81611343565b905091905056fea26469706673582212206d23e583cedcadd0da4e851f9d940c90bace8f29c96de6a8ef69e3dce29c04b964736f6c63430008080033",
  "devdoc": {
    "kind": "dev",
    "methods": {
      "owner()": {
        "details": "Returns the address of the current owner."
      },
      "renounceOwnership()": {
        "details": "Leaves the contract without owner. It will not be possible to call `onlyOwner` functions anymore. Can only be called by the current owner. NOTE: Renouncing ownership will leave the contract without an owner, thereby removing any functionality that is only available to the owner."
      },
      "transferOwnership(address)": {
        "details": "Transfers ownership of the contract to a new account (`newOwner`). Can only be called by the current owner."
      }
    },
    "version": 1
  },
  "userdoc": {
    "kind": "user",
    "methods": {},
    "version": 1
  },
  "storageLayout": {
    "storage": [
      {
        "astId": 7,
        "contract": "contracts/EthPool.sol:EthPool",
        "label": "_owner",
        "offset": 0,
        "slot": "0",
        "type": "t_address"
      },
      {
        "astId": 141,
        "contract": "contracts/EthPool.sol:EthPool",
        "label": "rewards",
        "offset": 0,
        "slot": "1",
        "type": "t_array(t_struct(Reward)137_storage)dyn_storage"
      },
      {
        "astId": 145,
        "contract": "contracts/EthPool.sol:EthPool",
        "label": "stakedAmount",
        "offset": 0,
        "slot": "2",
        "type": "t_mapping(t_address,t_uint256)"
      },
      {
        "astId": 149,
        "contract": "contracts/EthPool.sol:EthPool",
        "label": "depositDate",
        "offset": 0,
        "slot": "3",
        "type": "t_mapping(t_address,t_uint256)"
      },
      {
        "astId": 152,
        "contract": "contracts/EthPool.sol:EthPool",
        "label": "stakers",
        "offset": 0,
        "slot": "4",
        "type": "t_array(t_address)dyn_storage"
      },
      {
        "astId": 155,
        "contract": "contracts/EthPool.sol:EthPool",
        "label": "weekDays",
        "offset": 0,
        "slot": "5",
        "type": "t_uint256"
      }
    ],
    "types": {
      "t_address": {
        "encoding": "inplace",
        "label": "address",
        "numberOfBytes": "20"
      },
      "t_array(t_address)dyn_storage": {
        "base": "t_address",
        "encoding": "dynamic_array",
        "label": "address[]",
        "numberOfBytes": "32"
      },
      "t_array(t_struct(Reward)137_storage)dyn_storage": {
        "base": "t_struct(Reward)137_storage",
        "encoding": "dynamic_array",
        "label": "struct EthPool.Reward[]",
        "numberOfBytes": "32"
      },
      "t_mapping(t_address,t_uint256)": {
        "encoding": "mapping",
        "key": "t_address",
        "label": "mapping(address => uint256)",
        "numberOfBytes": "32",
        "value": "t_uint256"
      },
      "t_struct(Reward)137_storage": {
        "encoding": "inplace",
        "label": "struct EthPool.Reward",
        "members": [
          {
            "astId": 134,
            "contract": "contracts/EthPool.sol:EthPool",
            "label": "timestamp",
            "offset": 0,
            "slot": "0",
            "type": "t_uint256"
          },
          {
            "astId": 136,
            "contract": "contracts/EthPool.sol:EthPool",
            "label": "totalAmount",
            "offset": 0,
            "slot": "1",
            "type": "t_uint256"
          }
        ],
        "numberOfBytes": "64"
      },
      "t_uint256": {
        "encoding": "inplace",
        "label": "uint256",
        "numberOfBytes": "32"
      }
    }
  }
}